S011000053575F53657269616C2E73726563AA
S11300000C9434000C9451000C9415010C94510080
S11300100C9451000C9451000C9451000C943B012D
S11300200C9451000C9451000C9451000C94510008
S11300300C9451000C9451000C9451000C945100F8
S11300400C9451000C9451000C9451000C945100E8
S11300500C9451000C9451000C9451000C945100D8
S11300600C9451000C94510011241FBECFEFD8E022
S1130070DEBFCDBF11E0A0E0B1E0E4EFF3E002C0E9
S113008005900D92A430B107D9F721E0A4E0B1E0C6
S113009001C01D92AD36B207E1F70E9453000C94E3
S11300A0F8010C940000CF93DF931F92CDB7DEB715
S11300B078940E94740062E080E091E00E94ED0078
S11300C008C00E949900898361E0CE0101960E94D4
S11300D0ED000E948E008111F4CF8FE39CE901971B
S11300E0F1F700C00000F5CF109204015398549A20
S11300F05B9A5C9A82E08093B0001092B1001092F7
S1130100B20080937000E9E6F0E080818B7F808309
S1130110808188608083E19AE99A089580910A0138
S113012090910901891710F0891B0895805C891B3F
S11301300895809109018F5F8093090180910901DD
S1130140803411F410920901E0910901F0E0E45DBA
S1130150FE4F80810895823010F4811104C0109202
S1130160B100E19A80E080930401E99A08959091A6
S1130170060180910701981761F1809104018111B2
S11301802AC0E99882E080930401E0910601F0E03E
S1130190E55FFE4F808180936C01809106018F5F43
S11301A08093060180910601803211F410920601B9
S11301B010920501E1EBF0E08081887F808310924A
S11301C0B20080ED8093B30082E080835C9881E08C
S11301D0089580E0089580E00895AC019FEF960FA4
S11301E0903208F56623E1F0DA01292F30E02F5F21
S11301F03F4F240F351FE0910701F0E09D91E55F2B
S1130200FE4F9083909107019F5F90930701909117
S11302100701903211F410920701A217B30759F79E
S11302200E94B700089580E008951F920F920FB6C0
S11302300F9211248F93EF93FF93809104018230E6
S113024091F0E99881E08093040110920801E1EBB8
S1130250F0E08081887F80831092B20088E68093EA
S1130260B30082E08083FF91EF918F910F900FBED6
S11302700F901F9018951F920F920FB60F92112492
S11302802F933F934F935F936F937F938F939F939A
S1130290AF93BF93EF93FF9380910401813009F0F2
S11302A067C080910801811109C04B9B03C00E9463
S11302B0AB008DC080ED8093B30054C080910801E1
S11302C0882341F180910801893020F54B9B10C0AF
S11302D02091080130912B01215081E090E002C06F
S11302E0880F991F2A95E2F7832B80932B013AC03C
S11302F02091080130912B01215081E090E002C04F
S1130300880F991F2A95E2F780959095832380930F
S11303102B0128C0809108018930B9F480910A0129
S11303208F5F80930A0180910A01803411F4109246
S11303300A01E0910A01F0E080912B01E45DFE4F97
S1130340808381E00E94AB000DC0809108018E3053
S113035049F4109204010E94B700811138C00E9430
S1130360AB0035C0809108018F5F809308012FC0D6
S113037080910401823059F5809105018091050135
S1130380883080F480916C012091050190E002C0D6
S1130390959587952A95E2F780FF02C05C9A12C072
S11303A05C9810C080910501883011F45C9A0AC0F1
S11303B0809105018A3031F480E00E94AB000E94F4
S11303C0B70005C0809105018F5F80930501FF91FF
S11303D0EF91BF91AF919F918F917F916F915F91B9
S11303E04F913F912F910F900FBE0F901F90189532
S10703F0F894FFCFAB
S10703F44849000070
S9030000FC
